:020000040800F2
:1000000000000220FD230008F5230008F523000866
:10001000F5230008F5230008F52300080000000080
:10002000000000000000000000000000F5230008B0
:10003000F523000800000000F5230008970E0008D3
:10004000F5230008F5230008F5230008F523000830
:10005000F5230008F5230008F5230008F523000820
:10006000F5230008F5230008F5230008F523000810
:10007000F5230008F5230008F5230008F523000800
:1000800057060008F5230008F5230008F5230008AB
:10009000F5230008F5230008F5230008F5230008E0
:1000A000F5230008F5230008F5230008F5230008D0
:1000B000F5230008F5230008F5230008F5230008C0
:1000C000F5230008F5230008F5230008F5230008B0
:1000D000F5230008F5230008F5230008F5230008A0
:1000E000F5230008F523000871490008F5230008EE
:1000F000F5230008F5230008F5230008F523000880
:10010000F5230008F5230008F5230008F52300086F
:10011000F5230008F5230008250F0008E50F000867
:10012000F5230008F5230008F5230008F52300084F
:10013000F5230008F5230008F5230008F52300083F
:10014000F5230008F5230008F52300085D490008A1
:10015000F5230008F5230008F5230008F52300081F
:10016000F5230008F5230008F5230008F52300080F
:10017000F5230008F5230008F5230008F5230008FF
:08018000F5230008F523000837
:1001880080B51A4B00F003F8BDE88040704780B591
:1001980030B401FA02F1164C04FA03F46FEA0404CD
:1001A80004FA02F401EA0401056825EA040545EAAF
:1001B8000105056030BCBDE88040704780B50B4A3A
:1001C80000F003F8BDE88040704780B5084B03FA9B
:1001D80002F36FEA030303FA01F3006800EA03007D
:1001E80020FA01F0BDE880407047000001000000DF
:1001F800FFFFFFFF80B5BDE88040704780B510B4B1
:1002080004460846114600F050FD80F00100374AC8
:1002180052F824100B1A00F0078042F824002146F7
:10022800334A126800F044FF10BCBDE880407047B4
:1002380080B5304800F00CFC2F4800F050FC2F48E7
:100248002F49304AFFF7DAFF2F483049304AFFF785
:10025800D5FF304800F043FC2F482949294AFFF7C9
:10026800CDFF2E4829492A4AFFF7C8FF2C4800F03D
:1002780036FC2C482249234AFFF7C0FF2A48234965
:10028800234AFFF7BBFF294800F029FC28481C49EE
:100298001C4AFFF7B3FF27481C491D4AFFF7AEFF6A
:1002A800254800F01CFC1A481549164AFFF7A6FF16
:1002B80022481649164AFFF7A1FF214800F00FFC13
:1002C80020480F490F4AFFF799FF1F480F49104A66
:1002D800FFF794FF1D4800F002FC1D480849094A31
:1002E800FFF78CFFBDE88040704700000000002049
:1002F8007C340020FF000000EFFFFFFF000000003B
:10030800000002400F000000010000000008024049
:1003180008000000F7FFFFFF0200000003000000D4
:10032800FEFFFFFF0400000005000000BFFFFFFF05
:100338000600000007000000FDFFFFFF09000000A5
:100348007FFFFFFF0A0000000B000000DFFFFFFF38
:100358000C00000080B5BDE88040704780B5444877
:100368004449454A434BFFF712FF84B04348444988
:10037800404A444B3F4C0094424D0195414E0296F1
:1003880000F048FC04B03D483D493A4A00F07DFC85
:100398003C483D4900F047F83C483D4900F043F8E7
:1003A8003C483B4900F03FF83A48364900F03BF8F2
:1003B8003448344900F037F83748384900F033F802
:1003C8002F48374900F02FF836482A4900F02BF813
:1003D8003548284900F027F83448354900F023F813
:1003E8003448354900F01FF83448354900F01BF807
:1003F8003448244900F017F83348224900F013F82C
:100408003248204900F00FF831481E4900F00BF837
:1004180030481C4900F007F82F481A4900F003F843
:10042800BDE88040704780B530B404460D462B487F
:1004380000F0A0F9204600F0B3F9284600F0B0F922
:1004480000F0B8F930BCBDE88040704780B510B402
:10045800234990FBF1F004461A482146FFF7E3FFD1
:1004680019482146FFF7DFFF10BCBDE88040704700
:10047800303802400100000003000000000C024078
:100488000400000000000000990000004700000080
:100498008000000032000000020000009E00000002
:1004A800AF00000008000000090000000D00000077
:1004B800D00000000E000000C30000000F00000084
:1004C80030000000140000001500000020000000AB
:1004D800210000002200000023000000940000001A
:1004E8000A00000080B51A481A491B4A194BFFF741
:1004F8004EFE84B019481A491A4A174B154C0094F5
:10050800154D0195144E029600F084FB04B0164870
:100518001049164A0F4BFFF73AFE15480D49154A80
:100528000C4BFFF734FE12480A49134A094BFFF7F0
:100538002EFE0F480749074A064BFFF728FE0C48CE
:100548000449054A034BFFF722FEBDE88040704787
:1005580030380240010000000000000000000240A6
:100568000400000003000000403802401D000000A5
:10057800007400400C0000000200000080B5BDE8D7
:100588008040704780B5074A4FEA80001044064A09
:1005980052F82110054A064BFFF7F9FDBDE88040E7
:1005A8007047000094000020340000200000000084
:1005B8000800000080B52E482E492F4A2D4BFFF722
:1005C800E6FD2E482E492F4A2F4BFFF7E0FD2B481A
:1005D80028492E4A274BFFF7DAFD284825492C4A97
:1005E800244BFFF7D4FD254822492A4A2A4BFFF716
:1005F800CEFD2A482A492B4A2B4BFFF7C8FD2B482A
:100608002B49284A284BFFF7C2FD1C481949254A9F
:10061800184BFFF7BCFDBDE88040704780B510B4AB
:10062800044616481F491F4A124BFFF7B0FD2148E0
:1006380021461C4A204BFFF7AAFD10480D49194ACC
:100648000C4BFFF7A4FD10BCBDE88040704780B597
:100658001A481B49134A144BFFF799FD19481849C2
:10066800104A114BFFF793FDBDE88040704700002A
:100678003038024001000000150000008860024088
:100688000700000019000000030000000A00000035
:100698000800000006000000020000009060024010
:1006A8001074004000000000200000009460024028
:1006B800300200208C600240100000000C600240F4
:1006C800FFFFFFFF0860024080B542484249424AA6
:1006D800414BFFF75CFD84B040484149414A3E4BDD
:1006E8003D4C00943F4D01953F4E029600F092FA22
:1006F80004B084B039483D493A4A374B364C0094E7
:10070800384D0195384E029600F084FA04B0384806
:100718003149384A304BFFF73AFD37483749384AAC
:100728002F4BFFF734FD37482B49374A2A4BFFF741
:100738002EFD34483549284A354BFFF728FD354802
:1007480035492F4A354BFFF722FD354835492C4AA4
:10075800234BFFF71CFD34481F49294A1E4BFFF75E
:1007680016FD31481C49314A1B4BFFF710FDBDE807
:100778008040704780B510B404462B4816492C4A6F
:10078800154BFFF704FD2B48016811F001013FF4F8
:10079800FBAF204600F004F810BCBDE8804070476D
:1007A80080B501462448164A214BFFF7F0FCBDE806
:1007B8008040704780B51C4807490C4A064BFFF734
:1007C800E6FC1E48016811F001017FF4FBAFBDE8AB
:1007D80080407047303802400100000000040240A9
:1007E80006000000020000000400000009000000EC
:1007F800403802401500000004540040300000005A
:1008080000000000085400400E00000063000000D3
:10081800070000001C540040F00000000C0000001D
:100828002054004031000000005400400A0000003D
:1008380008000000145400401054004018540040B0
:1008480080B5BDE88040704780B50C4A52F820203A
:100858000B48036911F0010100F0068001FA02F16A
:1008680023EA010300F006B84FF0010101FA02F192
:1008780043EA01030361BDE880407047640000203B
:100888009400002080B5D048D049D14ACF4BFFF71B
:100898007EFCCD48CD49CF4ACC4BFFF778FCCA48FF
:1008A800CA49CA4AC94BFFF772FCC748C749CA4A6E
:1008B800C64BFFF76CFC84B0C848C449C34AC64B52
:1008C800C24C0094C44D0195C34E029600F0A2F9A3
:1008D80004B084B0C248C049BC4ABF4BBB4C00946A
:1008E800BD4D0195BC4E029600F094F904B084B059
:1008F800BB48B649B54AB84BB44C0094B64D0195BF
:10090800B54E029600F086F904B084B0B448B549F3
:10091800AE4AB14BAD4C0094AF4D0195AE4E029628
:1009280000F078F904B084B0AD48AF49A74AAA4BA3
:10093800A64C0094A84D0195A74E029600F06AF9BE
:1009480004B084B0A648A949A04AA34B9F4C009480
:10095800A14D0195A04E029600F05CF904B084B058
:10096800A3489A49994A9C4B984C00949A4D0195F2
:10097800994E029600F04EF904B084B09C4895490F
:10098800924A954B914C0094934D0195924E029644
:1009980000F040F904B084B0954892498B4A8E4BD8
:1009A8008A4C00948C4D01958B4E029600F032F9DA
:1009B80004B084B08E488C49844A874B834C009499
:1009C800854D0195844E029600F024F904B084B058
:1009D800874886497D4A804B7C4C00947E4D019522
:1009E8007D4E029600F016F904B084B0814879492A
:1009F800764A794B754C0094774D0195764E029660
:100A080000F008F904B084B074487B49724A724B0C
:100A18006E4C00946D4D01956F4E029600F0FAF8F9
:100A280004B084B0724875496B4A6B4B674C0094AC
:100A3800664D0195684E029600F0ECF804B07048D7
:100A480000F006F86E4800F04AF8BDE880407047AC
:100A580080B510B4044666486349224600F015F98B
:100A68004FEA54045E486049224600F00EF94FEA06
:100A780054045B485849224600F007F94FEA5404E9
:100A880057485A49224600F000F94FEA540454489E
:100A98004E49224600F0F9F84FEA540454485149A7
:100AA800224600F0F2F84FEA54044C4847492246DF
:100AB80000F0EBF84FEA54044D484649224600F04E
:100AC800E4F84B484949444A00F0DFF848484749A8
:100AD8003E4A00F0DAF810BCBDE88040704780B5A7
:100AE80010B404463E483C49224600F0CEF84FEA8E
:100AF80054043F483B49224600F0C7F84FEA5404E3
:100B08003B483449224600F0C0F84FEA54043448C0
:100B18003649224600F0B9F84FEA540430483249C1
:100B2800224600F0B2F84FEA54042C4827492246DE
:100B380000F0ABF84FEA540429482449224600F053
:100B4800A4F84FEA54042A482749224600F09DF8A1
:100B580028482049204A00F098F826481D491B4A91
:100B680000F093F810BCBDE88040704780B5254878
:100B78000068003840F0048000F0C6F8FFF758FB22
:100B8800174818491E4A00F080F81E4909681E488F
:100B980050F82100FFF75CFF1A4909681B4850F814
:100BA8002100FFF79CFF0E480E49194A00F06DF826
:100BB8001448016801F101014A1FA8BF0021016022
:100BC800BDE8804070470000303802400100000056
:100BD80003000000020000000000000000000240C6
:100BE8000004024004000000050000000B000000A3
:100BF80000080240000C02400F000000080000003E
:100C0800FFFFFFFF7C0000208000002094000020F0
:100C1800FEFFFFFF80B50FB4009800F100000299B5
:100C2800019A4FEA4202254BFFF7B1FA009800F10A
:100C380004000399019A224BFFF7A9FA009800F1E2
:100C480008000699019A4FEA42021C4BFFF79FFAE7
:100C5800009800F10C000799019A4FEA4202174BDD
:100C6800FFF795FA009800F120000899019AB2F16F
:100C78000803A4BF0430083A4FEA8202114BFFF779
:100C880086FA0FBCBDE88040704780B500F11800B7
:100C98000B4611461A4611F0010104BF012110321A
:100CA800FFF76EFABDE88040704780B500F110008C
:100CB800FFF784FABDE8804070470000020000009A
:100CC800010000000400000080B510B43348FFF7AD
:100CD800BFFE3348FFF703FF32483349FFF7E5FF0C
:100CE8004FEA400431483249FFF7DFFF44EA000485
:100CF8003048046010BCBDE88040704780B52E497C
:100D08000860BDE88040704780B510B42348FFF7FD
:100D18009FFE2348FFF7E3FE22482349FFF7C5FF5C
:100D28004FEA400421482249FFF7BFFF44EA000484
:100D3800204800682146214A1268031E40F00680B8
:100D48004B1E08BF01328B1E08BF013A431E40F0FC
:100D58000680CB1E08BF01320B1E08BF013A831E56
:100D680040F006800B1E08BF0132CB1E08BF013AB7
:100D7800C31E40F006808B1E08BF01324B1E08BF01
:100D8800013A0C4B19600C4B1B68013B40F0028088
:100D98000A4B1A6010BCBDE880407047FDFFFFFF9A
:100DA800FFFFFFFF000002400F00000000080240A4
:100DB80008000000A8000020AC000020B0000020BF
:100DC80080B5BDE88040704780B5F0B4124C134937
:100DD80000FB04F4B4FBF1F401FB04F4B4FBF0F4FD
:100DE8000F49104A0D4B104D0F4E371BA8BF00F08E
:100DF8000AB84F5D97550544EF1AA8BF3D4606F15E
:100E08000106FFF7F2BF094804602046FFF706FC19
:100E1800F0BCBDE88040704700320000409C0000F4
:100E2800000001083002002000000000B40000208B
:100E380080B51B481B491C4A1A4BFFF7A8F91848EC
:100E48001849184A174BFFF7A2F915481549174AC8
:100E5800144BFFF79CF916481649144A164BFFF72E
:100E680096F9BDE88040704780B514490A68104477
:100E7800134B821A80F204800A68D21A3FF7FCAF3B
:100E88000A68121AFFF6FCAFBDE88040704780B5CB
:100E98000A48016801F101010160BDE8804070471E
:100EA80010E000E001000000020000000000000067
:100EB80014E000E020480100180000007C34002005
:100EC800FFFF000080B51F481F49204A1E4BFFF74F
:100ED8005EF91F481C491F4A1B4BFFF758F91E486B
:100EE8001E491A4A1E4BFFF752F91E4816491E4A58
:100EF800154BFFF74CF91D481D491E4A1E4BFFF7BD
:100F080046F9BDE88040704780B501461048194A47
:100F18000D4BFFF73CF9BDE88040704780B5174896
:100F28001449144A084BFFF732F9BDE8804070476E
:100F380080B5134804490F4A034BFFF728F9BDE869
:100F48008040704740380240010000000400000063
:100F580000100040070000000410004002000000DC
:100F6800030000000C100040080000002C10004096
:100F780034080000000000001000000010100040BD
:100F88001410004080B51B481B491C4AFFF7F8F8AD
:100F98001B4819491B4AFFF7F3F81B481B491C4A11
:100FA800154BFFF7F4F81B481B491C4A1C4BFFF76D
:100FB800EEF81C481049154A0F4BFFF7E8F81A4895
:100FC8001A49124A1A4BFFF7E2F80F480A490F4A22
:100FD800094BFFF7DCF8BDE88040704780B5FFF7A4
:100FE800C5FD14480949094A034BFFF7D0F8BDE885
:100FF8008040704704E100E0010000001700000095
:1010080040380240050000000014004000000000C5
:101018000700000004140040020000000400000063
:10102800030000000C1400402C140040A0410000F4
:10103800100000001014004080B5FFF753FAFFF7C6
:1010480043FBFFF78BF9FFF7BBFEFFF7B3FAFFF798
:1010580039FFBDE88040704780B5FFF755FFBDE810
:101068008040704780B5FFF7AFFEBDE8804070470D
:1010780080B5FFF7EBF9BDE88040704780B400AF5A
:1010880043F23043C2F200034FF000021A6443F205
:101098003043C2F200034FF000025A6443F2304377
:1010A800C2F200034FF001029A64BD4680BC70474B
:1010B80080B487B000AFF860B9607A60FB68DBB2D3
:1010C8004FEAC3135BB24FEAE313DAB23B6962F348
:1010D80000033B61BB68DBB24FEA43035BB24FEAF4
:1010E8006303DAB23B6962F347033B617B684FEA0B
:1010F80003224FEA22223B6962F31F233B6143F23A
:101108003043C2F200039B6C002B13D043F23043F0
:10111800C2F200035A6C43F23043C2F20003396949
:1011280043F8221043F23043C2F200034FF00002AA
:101138009A6430E043F23043C2F200035B6C03F17F
:1011480001024FEAE2734FEA1373D21802F00F025A
:10115800D31A7B6143F23043C2F200031A6C7B69F5
:101168009A4218D043F23043C2F200037A695A64B3
:1011780043F23043C2F200035A6C43F23043C2F2E6
:101188000003396943F8221043F23043C2F20003E6
:101198004FF000029A6407F11C07BD4680BC7047F7
:1011A80080B483B000AF43F23043C2F200031A6C3C
:1011B80043F23043C2F2000353F822307B6043F21B
:1011C8003043C2F200039B6C002B28D143F230431A
:1011D800C2F200031A6C43F23043C2F200035B6CA4
:1011E8009A4207D143F23043C2F200034FF00102A2
:1011F8009A6414E043F23043C2F200031B6C03F11B
:1012080001024FEAE2734FEA1373D21802F00F0299
:10121800D31A1A4643F23043C2F200031A647B68B9
:10122800184607F10C07BD4680BC704780B400AF74
:1012380043F23043C2F200039B6C1846BD4680BCA3
:10124800704700BF80B500AF03F0CEF803F024F973
:10125800FFF7EEFD80BD00BF80B586B000AF7860B7
:101268004FF00003FB604FF00003BB607B68002B6E
:101278000ADA4FF00103BB607B68C3F100037B60AF
:10128800FB6803F10103FB607B683B6110E03A698E
:1012980046F26763C6F2666383FB02134FEAA30153
:1012A8004FEAE273CB1A3B61FB6803F10103FB6071
:1012B8003B69002BEBDC7B68002B03D1FB6803F157
:1012C8000103FB60FB68042B18DD4FF000004FF0B2
:1012D8000A01FFF757F94FF001004FF00A01FFF735
:1012E80051F94FF002004FF00A01FFF74BF94FF0A8
:1012F80003004FF00A01FFF745F953E04FF00003F0
:101308007B6108E078694FF00B01FFF73BF97B69D7
:1013180003F101037B61FB68C3F104027B699A4214
:10132800F0DABB68002B0BD0FB68C3F10403FA6842
:1013380002F1FF32FA6018464FF00A01FFF722F96E
:101348004FF001037B6129E07B69C3F104007968F0
:1013580046F26763C6F2666383FB01234FEAA30282
:101368004FEAE173D21A13464FEA83039B184FEAF8
:101378004303CA1A1146FFF705F97A6846F267630C
:10138800C6F2666383FB02134FEAA3014FEAE273D6
:10139800CB1A7B607B6903F101037B617A69FB6887
:1013A8009A42D1DD07F11807BD4680BD80B500AF70
:1013B800FEF720FFFFF762FEFFF764FAFFF7DEF89B
:1013C800FFF73EFAFFF7DEFDFFF77EFC00F002F8BC
:1013D80080BD00BF80B584B000AF4FF000004FF073
:1013E8000B01FFF7CFF84FF001004FF00B01FFF7AB
:1013F800C9F84FF002004FF00B01FFF7C3F84FF0A8
:1014080003004FF00B01FFF7BDF84FF000004FF05D
:101418000001FFF719FA4FF001004FF00001FFF744
:1014280013FA4FF002004FF00001FFF70DFA4FF0EA
:1014380003004FF00001FFF707FA4FF004004FF0E8
:101448000001FFF701FA4FF005004FF00001FFF728
:10145800FBF943F28443C2F200034FF07D021A60A5
:1014680043F28443C2F200031B681846FFF7FAFDF3
:1014780043F20453C2F200036FF00F021A6043F202
:101488000453C2F200031A6813464FEA83039B18F9
:1014980003F10702002BB8BF13464FEAE3031A46CD
:1014A80043F20853C2F200031A6043F20853C2F22F
:1014B80000031B681846FFF7DBFD43F2BC43C2F28A
:1014C80000034FF000021A6043F2C843C2F200035F
:1014D8004FF000021A6043F2D043C2F200034FF00B
:1014E80000021A6043F2C043C2F200034FF0000248
:1014F8001A6043F2CC43C2F200034FF000021A60B4
:1015080043F2D443C2F200034FF000021A60BB68F2
:101518006FF34703BB60BB686FF30003BB60BB6836
:101528006FF31F23BB604FF00003FB600BE043F237
:101538008843C2F20003FA68B96843F82210FB68CE
:1015480003F10103FB60FB680C2BF0DD4FF000009A
:10155800FFF7D4FB43F28043C2F200034FF00002CE
:101568001A6043F2D843C2F200034FF000021A6037
:101578004FF000033B604FF000037B604FF0000327
:10158800FB6010E043F2DC42C2F20002FB684FEA63
:10159800C303D3183A4692E8030083E80300FB68C4
:1015A80003F10103FB60FB68042BEBDD00F004F89A
:1015B80007F11007BD4680BD80B500AF43F2C443B4
:1015C800C2F200034FF000021A604FF000004FF023
:1015D8000101FFF739F943F28443C2F200031B68A3
:1015E8001846FFF739FE80BD80B500AF43F2C4430B
:1015F800C2F200034FF001021A604FF001004FF0F1
:101608000101FFF721F943F20853C2F200031B68F6
:101618001846FFF721FE4FF00100FFF76FFB80BD72
:1016280080B500AF43F2C443C2F200034FF0020298
:101638001A604FF002004FF00101FFF705F94FF073
:1016480004004FF00001FFF7FFF843F28043C2F2B5
:1016580000031B68002B07D043F2DC43C2F20003EF
:101668005B681846FFF7F8FD43F2D843C2F200035F
:101678004FF000021A6080BD80B586B000AFFFF75A
:10168800D5FD0346002B40F0CD80FFF789FD0346CA
:101698007B603B7903F00103DBB2002B00F09680FE
:1016A8007B6843F34603DBB25BB2072B00F383800E
:1016B8007B6843F34603DBB2DBB203F00103DBB222
:1016C800002B14BF00230123DBB23B617B6843F38B
:1016D8004603DBB25BB24FEAD372D3184FEA630317
:1016E800DBB25BB2FB60FB68032B1BD801A252F88C
:1016F80023F000BF0D170008151700081D17000874
:10170800251700084FF47A737B610CE04FF06403EF
:101718007B6108E04FF00A037B6104E04FF00103AE
:101728007B6100E000BF3B69002B03D17B69C3F1FB
:1017380000037B6143F28443C2F200031B687A69A9
:10174800D3187B617B697C2B02DC4FF07D037B61C6
:101758007B69B3F5FA5F02DD4FF4FA537B6143F21C
:101768008443C2F200037A691A6043F20453C2F256
:1017780000036FF00F021A6043F20453C2F2000331
:101788001A6813464FEA83039B1803F10702002BDC
:10179800B8BF13464FEAE3031A4643F20853C2F2AE
:1017A80000031A6043F28443C2F200031B68184620
:1017B800FFF752FD2AE03B7923F00103DBB2122B3D
:1017C80024D100F033FAFFF70FFF1FE03B7923F035
:1017D8000103DBB2142B19D17B6843F317231A4694
:1017E80043F28843C2F200039B6A43F31723D31AD8
:1017F800BB60BB68B3F57A7F08DDBA6842F20F7345
:101808009A4203DC00F012FAFFF70AFF7B6843F301
:101818004603DBB25AB243F28843C2F20003796846
:1018280043F8221007F11807BD4680BD80B584B083
:1018380000AF40F2B003C2F200031B68002B4BD08C
:1018480043F20453C2F200031A6840F2B003C2F232
:1018580000031B68D318FB6040F2B003C2F2000318
:101868004FF000021A60FB6813F1100F02DA6FF0F4
:101878000F03FB60FB68B02B02DD4FF0B003FB6089
:1018880043F20453C2F20003FA681A6043F20453A5
:10189800C2F200031A6813464FEA83039B1803F148
:1018A8000702002BB8BF13464FEAE3031A4643F278
:1018B8000853C2F200031A6043F20853C2F200034D
:1018C8001B681846FFF7C8FC43F20853C2F200032E
:1018D8001B681846FFF7CCFBFFF7A8FC0346002B54
:1018E80040F0BE80FFF75CFC03467B603B7903F069
:1018F8000103DBB2002B72D03B7923F00103DBB28A
:10190800102B04D100F0BCF9FFF756FE9CE03B79A0
:1019180023F00103DBB2122B25D143F2C043C2F2FC
:1019280000031B68002B14BF00230123DBB21A46F7
:1019380043F2C043C2F200031A6043F2C043C2F24A
:1019480000031B681846FFF787FB43F2C043C2F247
:1019580000031B68002B77D14FF005004FF0000102
:10196800FEF772FF70E03B7923F00103DBB2162B20
:101978006AD143F28043C2F200031B68042B63DC84
:1019880043F28043C2F200031A6843F28443C2F26E
:101998000003196843F2DC43C2F2000343F8321033
:1019A80043F28043C2F20003186843F20853C2F2BC
:1019B8000003196843F2DC42C2F200024FEAC00396
:1019C800D318596043F28043C2F200031B6803F145
:1019D800010243F28043C2F200031A6034E03B790B
:1019E80023F00103DBB2142B2ED17B6843F31723BA
:1019F8001A4643F28843C2F200039B6A43F3172353
:101A0800D31ABB60BA6840F2E7339A4213DC43F258
:101A18008043C2F200031B68002B15DD43F28043AC
:101A2800C2F200031B6803F1FF3243F28043C2F2A3
:101A380000031A6008E0BA6842F20F739A4203DCA6
:101A480000F01EF9FFF7ECFD7B6843F34603DBB2B9
:101A58005AB243F28843C2F20003796843F822106D
:101A680007F11007BD4680BD80B582B000AFFFF713
:101A7800DDFB0346002B40F0D580FFF791FB0346C2
:101A88007B603B7903F00103DBB2002B00F09C8004
:101A98003B7923F00103DBB2102B1BD143F2D8436F
:101AA800C2F200031A6843F28043C2F200031B68C3
:101AB8009A4280F2AB8043F2D843C2F200031A681C
:101AC80043F2DC43C2F2000353F832301846FFF702
:101AD800C3FB9BE03B7923F00103DBB2122B04D15B
:101AE80000F012F9FFF780FD90E03B7923F0010345
:101AF800DBB2162B40F08A8043F2D843C2F20003CF
:101B08001A6843F28043C2F200031B689A427DDAE6
:101B180043F2D843C2F200031B6803F1010243F207
:101B2800D843C2F200031A6043F2D843C2F200035A
:101B38001A6843F28043C2F200031B689A4218D124
:101B48004FF000004FF00B01FEF71CFD4FF00100B5
:101B58004FF00B01FEF716FD4FF002004FF00B019E
:101B6800FEF710FD4FF003004FF00B01FEF70AFDE2
:101B78004CE043F28843C2F2000393F8203003F0AC
:101B88000103DBB2002B0ED043F2D843C2F20003AC
:101B98001A6843F2DC43C2F2000353F832301846A5
:101BA800FFF75AFB32E043F2D843C2F200031B6846
:101BB80043F2DC42C2F200024FEAC303D3185B6867
:101BC8001846FFF749FB21E03B7923F00103DBB21C
:101BD800102B1BD143F2D843C2F200031A6843F218
:101BE8008043C2F200031B689A420FDA43F2D843DB
:101BF800C2F200031B6843F2DC42C2F200024FEA61
:101C0800C303D3185B681846FFF726FB7B6843F3CA
:101C18004603DBB25AB243F28843C2F20003796842
:101C280043F8221007F10807BD4680BD80B500AF14
:101C38004FF000004FF00001FEF706FE4FF00000E5
:101C48004FF00B01FEF79EFC4FF001004FF00B0127
:101C5800FEF798FC4FF002004FF00B01FEF792FCE4
:101C68004FF003004FF00B01FEF78CFC43F2844366
:101C7800C2F200031B681846FFF7F4F980BD00BFE5
:101C880080B500AF4FF00000FFF738F84FF00100C3
:101C98004FF00001FEF7D8FD4FF000004FF00B01A8
:101CA800FEF770FC4FF001004FF00B01FEF76AFCE5
:101CB8004FF002004FF00B01FEF764FC4FF00300F9
:101CC8004FF00B01FEF75EFC43F2C043C2F2000383
:101CD8004FF000021A6043F2CC43C2F200034FF007
:101CE80000021A604FF005004FF00001FEF7ACFD4E
:101CF80043F2D443C2F200034FF000021A604FF0DF
:101D08000000FFF7A9F980BD80B500AF4FF00200D1
:101D18004FF00001FEF798FD4FF000004FF00B0167
:101D2800FEF730FC4FF001004FF00B01FEF72AFCE4
:101D38004FF002004FF00B01FEF724FC4FF00300B8
:101D48004FF00B01FEF71EFC80BD00BF80B584B0CC
:101D580000AFF860B9607A60F868B9687A68FFF728
:101D6800A7F907F11007BD4680BD00BF80B483B056
:101D780000AF7860396040F2AC03C2F200031B6820
:101D8800002B24D07B68002B0ED03B684FEA8302DF
:101D980040F2B003C2F200031B68D21840F2B0034D
:101DA800C2F200031A6012E03A6813464FEA8373DE
:101DB8009B1A4FEA83031A4640F2B003C2F20003AB
:101DC8001B68D21840F2B003C2F200031A6007F190
:101DD8000C07BD4680BC704780B483B000AF786004
:101DE80007F10C07BD4680BC704700BF80B582B0C4
:101DF80000AF43F2C043C2F200031B68002B33D08C
:101E080043F2D443C2F200031B681A4643F27C43F0
:101E1800C2F200031B689A4226D243F2CC43C2F2B4
:101E280000031B68002B14BF00230123DBB21A46F2
:101E380043F2CC43C2F200031A6043F2CC43C2F22D
:101E480000031B684FF005001946FEF7FDFC43F23E
:101E58007C43C2F200031B6803F1A6031A4643F24F
:101E6800D443C2F200031A6043F28843C2F200036B
:101E780093F8283003F00103DBB2002B00F0B080A8
:101E880043F27C43C2F200031A6843F28843C2F269
:101E980000039B6A43F31723D31A7B607A6842F2E4
:101EA80010739A420CDD4FF003004FF00101FEF76A
:101EB800CBFC4FF4FA60FEF7D7FFFFF78BFAA4E0EC
:101EC8007A6841F288339A4240F38A8043F2D043D9
:101ED800C2F200031B681A4643F27C43C2F20003B5
:101EE8001B689A427CD27A6844F6D353C1F26203E3
:101EF80083FB02134FEAA3114FEAE273CB1AA3F153
:101F08000503042B52D801A252F823F0991F0008A8
:101F18007D1F0008611F0008451F0008291F0008D1
:101F280043F27C43C2F200031B6803F138031A46EC
:101F380043F2D043C2F200031A6037E043F27C4315
:101F4800C2F200031B6803F13E031A4643F2D04372
:101F5800C2F200031A6029E043F27C43C2F2000394
:101F68001B6803F147031A4643F2D043C2F2000349
:101F78001A601BE043F27C43C2F200031B6803F1C2
:101F880053031A4643F2D043C2F200031A600DE02D
:101F980043F27C43C2F200031B6803F164031A4650
:101FA80043F2D043C2F200031A6000BF43F2C843B1
:101FB800C2F200031B68002B14BF00230123DBB20D
:101FC8001A4643F2C843C2F200031A6043F2C843F8
:101FD800C2F200031B684FF004001946FEF734FCF8
:101FE80043F2C443C2F200031B68012B06D0022B44
:101FF80007D0002B08D1FFF73FFB06E0FFF716FCE0
:1020080003E0FFF731FD00E000BF07F10807BD4618
:1020180080BD00BF80B500AFFFF714F9FFF70CF8DB
:10202800FFF7C4F900F0F2F800F0F6F8FFF7DEFE6B
:10203800FAE700BF80B483B000AF78604FF46D4317
:10204800CEF200037A6842F0BF6242F40032DA60EE
:1020580007F10C07BD4680BC704700BF80B485B04F
:1020680000AF78604FF00003FB734FF00003BB73C1
:102078004FF00F037B737B68DB78002B45D04FF460
:102088006D43CEF20003DB686FEA030303F4E063F9
:102098004FEA1323FB73FB7BC3F10403BB737A7B07
:1020A800FB7B42FA03F37B737B685B781A46BB7B46
:1020B80002FA03F3FB737B689A787B7B1340DAB2EE
:1020C800FB7B1343FB73FB7B4FEA0313FB734FF458
:1020D8006143CEF200037A6812789B18FA7B83F882
:1020E80000234FF46143CEF200037A6812784FEA76
:1020F8005212D2B27968097801F01F014FF001003D
:1021080000FA01F143F8221014E04FF46143CEF2D3
:1021180000037A6812784FEA5212D2B279680978C5
:1021280001F01F014FF0010000FA01F102F1200255
:1021380043F8221007F11407BD4680BC704700BF62
:1021480080B483B000AF786039604FF46D43CEF24D
:1021580000033A6822F0604222F07F0279680A435D
:102168009A6007F10C07BD4680BC704780B483B005
:1021780000AF02460B46FA71BB71BB79002B0CD03D
:102188004FF46D43CEF200034FF46D42CEF20002DD
:102198001169FA790A431A610DE04FF46D43CEF2E2
:1021A80000034FF46D42CEF200021169FA796FEA2A
:1021B80002020A401A6107F10C07BD4680BC70474D
:1021C80080B483B000AF78607B68042B0CD14EF2EA
:1021D8001003CEF200034EF21002CEF20002126893
:1021E80042F004021A600BE04EF21003CEF2000334
:1021F8004EF21002CEF20002126822F004021A60B7
:1022080007F10C07BD4680BC704700BF80B500AF22
:1022180002F0BAFA80BD00BF80B582B000AF02F00C
:1022280005FB02F05BFB38603B68002B00F0DA80AE
:102238003B681B78012B32D14FF000037B6025E00F
:102248003B6803F101031B7803F1FF3243F27C433F
:10225800C2F200031B684FF0010011461A46FFF74F
:1022680075FD3B6803F101031B7803F1FF3243F26C
:102278007C43C2F200031B684FF0000011461A4667
:10228800FFF764FD7B6803F101037B603B6803F1A2
:1022980002031B781A467B689A42D1DCA2E03B68AD
:1022A8001B78022B11D13B6803F101031B7803F162
:1022B800FF3243F27C43C2F200031B684FF0010077
:1022C80011461A46FFF742FD8CE03B681B78032B4A
:1022D80011D13B6803F101031B7803F1FF3243F28C
:1022E8007C43C2F200031B684FF0000011461A46F7
:1022F800FFF72CFD76E03B681B78042B0DD13B687B
:1023080003F101031B781A463B6803F102031B78AB
:1023180010461946FFF72AFD64E03B681B78052B39
:102328001CD13B6803F101031B784FEA03623B6849
:1023380003F102031B784FEA0343D2183B6803F109
:1023480003031B784FEA0323D2183B6803F1040305
:102358001B78D3181846FFF73FFD43E03B681B780E
:10236800062B3FD143F28043C2F200031B68DBB265
:10237800184602F04DFA4FF000037B602AE043F262
:10238800DC42C2F200027B684FEAC303D3185B68E1
:10239800DBB2184602F03CFA43F2DC43C2F2000317
:1023A8007A6853F8323003F47F434FEA2323DBB2D1
:1023B800184602F02DFA43F2DC43C2F200037A68B1
:1023C80053F83230DBB2184602F022FA7B6803F188
:1023D80001037B6043F28043C2F200031B687A6802
:1023E8009A42CCDB07F10807BD4680BD80B400AF38
:1023F800FEE700BF80B586B000AF40F20003C2F22E
:1024080000037B6149F29443C0F600033B6140F24C
:10241800F813C2F20003BB6040F20023C2F20003CB
:10242800FB6044F26053C2F200037B604EF68853AF
:10243800CEF200033B600BE03B691A787B691A70A7
:102448003B6903F101033B617B6903F101037B6194
:102458007A69BB689A42EFD307E0FB684FF0000245
:102468001A70FB6803F10103FB60FA687B689A4203
:10247800F3D33B681B6843F470023B681A60FFF7AC
:10248800C9FDFEE780B400AF4FF47053C4F20103F6
:102498004FF000021A604FF47053C4F201034FF07A
:1024A80000025A604FF47053C4F201034FF0000267
:1024B8009A604FF47053C4F201034FF00002DA60DF
:1024C8004FF47053C4F201034FF6FF72C0F27F025B
:1024D8005A61BD4680BC704780B485B000AF786053
:1024E8004FF00003FB604FF47053C4F20103FB602C
:1024F8007B689B79002B78D04FF47053C4F20103AA
:102508004FF47052C4F2010211687A6812686FEAD7
:1025180002020A401A604FF47053C4F201034FF4E8
:102528007052C4F2010251687A6812686FEA0202B6
:102538000A405A607B681B79FA68D318FB60FB680D
:10254800FA6811687A6812680A431A604FF470537F
:10255800C4F201034FF47052C4F2010291687A6820
:1025680012686FEA02020A409A604FF47053C4F28C
:1025780001034FF47052C4F20102D1687A681268FC
:102588006FEA02020A40DA607B685B79102B1AD185
:102598004FF47053C4F201034FF47052C4F20102B5
:1025A80091687A6812680A439A604FF47053C4F2CB
:1025B80001034FF47052C4F20102D1687A681268BC
:1025C8000A43DA601FE04FF47053C4F20103FB6062
:1025D8007B685B79FA68D318FB60FB68FA68116856
:1025E8007A6812680A431A600DE07B681B79FA68FA
:1025F800D318FB60FB68FA6811687A6812686FEA9A
:1026080002020A401A6007F11407BD4680BC7047F1
:1026180080B483B000AF78607B684FF000021A6026
:102628007B684FF000021A717B684FF00C025A71F8
:102638007B684FF000029A7107F10C07BD4680BC19
:10264800704700BF80B483B000AF78604FF4705318
:10265800C4F201034FF47052C4F2010211697A689E
:102668000A431A6107F10C07BD4680BC704700BFDA
:1026780080B485B000AF78604FF00003FB734FF46F
:102688007053C4F201035A697B681340002B03D0CE
:102698004FF00103FB7302E04FF00003FB73FB7B79
:1026A800184607F11407BD4680BC704780B483B054
:1026B80000AF78604FF47053C4F201037A685A612E
:1026C80007F10C07BD4680BC704700BF80B485B0D9
:1026D80000AF78604FF00003FB734FF00003BB605E
:1026E8004FF47053C4F201031A687B681340BB604F
:1026F8004FF47053C4F201035A697B681340002BEE
:1027080006D0BB68002B03D04FF00103FB7302E037
:102718004FF00003FB73FB7B184607F11407BD4617
:1027280080BC704780B483B000AF78604FF47053BA
:10273800C4F201037A685A6107F10C07BD4680BCF0
:10274800704700BF80B582B000AF78607A684FF0FC
:102758000003C4F202039A420CD14FF001004FF07B
:10276800010100F0F5FE4FF001004FF0000100F00C
:10277800EFFE9EE07A684FF48063C4F202039A4247
:102788000CD14FF002004FF0010100F0E1FE4FF0D4
:1027980002004FF0000100F0DBFE8AE07A684FF497
:1027A8000063C4F202039A420CD14FF004004FF0C8
:1027B800010100F0CDFE4FF004004FF0000100F0E1
:1027C800C7FE76E07A684FF44063C4F202039A4287
:1027D8000CD14FF008004FF0010100F0B9FE4FF0A6
:1027E80008004FF0000100F0B3FE62E07A684FF491
:1027F8008053C4F202039A420CD14FF010004FF0FC
:10280800010100F0A5FE4FF010004FF0000100F0AC
:102818009FFE4EE07A684FF4A053C4F202039A4236
:102828000CD14FF020004FF0010100F091FE4FF065
:1028380020004FF0000100F08BFE3AE07A684FF478
:10284800C053C4F202039A420CD14FF040004FF03B
:10285800010100F07DFE4FF040004FF0000100F054
:1028680077FE26E07A684FF4E053C4F202039A42F6
:102878000CD14FF080004FF0010100F069FE4FF0DD
:1028880080004FF0000100F063FE12E07A684FF418
:102898000053C4F202039A420BD14FF480704FF0F8
:1028A800010100F055FE4FF480704FF0000100F078
:1028B8004FFE07F10807BD4680BD00BF80B487B052
:1028C80000AF786039604FF000037B614FF0000380
:1028D8003B614FF00003FB604FF000037B6186E033
:1028E8007B694FF0010202FA03F33B613B681A6807
:1028F8003B691340FB60FA683B699A4273D17B6875
:102908001A687B694FEA43034FF0030101FA03F3A6
:102918006FEA03031A407B681A607B681A683B6891
:102928001B7919467B694FEA430301FA03F31A43FB
:102938007B681A603B681B79012B03D03B681B79C5
:10294800022B34D17B689A687B694FEA43034FF0C6
:10295800030101FA03F36FEA03031A407B689A60E4
:102968007B689A683B685B7919467B694FEA430341
:1029780001FA03F31A437B689A607B685A687B699B
:102988009BB24FF0010101FA03F36FEA03031A4007
:102998007B685A607B685A683B689B7919467B69F3
:1029A8009BB201FA03F39BB21A437B685A607B68B7
:1029B800DA687B699BB24FEA43034FF0030101FADF
:1029C80003F36FEA03031A407B68DA607B68DA680E
:1029D8003B68DB7919467B694FEA430301FA03F345
:1029E8001A437B68DA607B6903F101037B617B69C9
:1029F8000F2B7FF675AF07F11C07BD4680BC7047EB
:102A080080B483B000AF78607B684FF6FF721A60BD
:102A18007B684FF000021A717B684FF000025A7110
:102A28007B684FF000029A717B684FF00002DA7100
:102A380007F10C07BD4680BC704700BF80B485B065
:102A480000AF78600B467B804FF48033FB607A8858
:102A5800FB681343FB60FA687B68DA617A887B68F5
:102A6800DA61FA687B68DA617B68DB69FB607B683E
:102A7800DB69FB6007F11407BD4680BC704700BFE7
:102A880080B485B000AF78600B467B804FF00003C0
:102A9800FB737B681A697B881340002B03D04FF0C7
:102AA8000103FB7302E04FF00003FB73FB7B184646
:102AB80007F11407BD4680BC704700BF80B483B0DF
:102AC80000AF78607B681B699BB2184607F10C075A
:102AD800BD4680BC704700BF80B485B000AF786049
:102AE8000B467B804FF00003FB737B685A697B8839
:102AF8001340002B03D04FF00103FB7302E04FF0AB
:102B08000003FB73FB7B184607F11407BD4680BC26
:102B1800704700BF80B483B000AF78607B685B69A2
:102B28009BB2184607F10C07BD4680BC704700BF32
:102B380080B483B000AF78600B467B807B687A886E
:102B48001A8307F10C07BD4680BC704780B483B078
:102B580000AF78600B467B807B687A885A8307F1E0
:102B68000C07BD4680BC704780B483B000AF786066
:102B780013460A467A807B707B78002B03D07B68EB
:102B88007A881A8302E07B687A885A8307F10C07EF
:102B9800BD4680BC704700BF80B483B000AF78608A
:102BA8000B467B807A887B685A6107F10C07BD4623
:102BB80080BC704780B483B000AF78600B467B80E0
:102BC8007B685A697B885A407B685A6107F10C0711
:102BD800BD4680BC704700BF80B485B000AF786048
:102BE80013460A467A807B704FF00003FB604FF073
:102BF8000003BB607A787B8803F007034FEA8303FE
:102C080002FA03F3FB607B884FEAD3039BB21A46B0
:102C18007B884FEAD3039BB219467B6801F1080110
:102C280053F821107B8803F007034FEA83034FF022
:102C38000F0000FA03F36FEA030319407B6802F1FF
:102C4800080243F822107B884FEAD3039BB21A4646
:102C58007B6802F1080253F82220FB681343BB602B
:102C68007B884FEAD3039BB21A467B6802F10802BD
:102C7800B96843F8221007F11407BD4680BC7047B5
:102C880080B400AF4FF46053C4F202034FF46052B3
:102C9800C4F20202126842F001021A604FF4605353
:102CA800C4F202034FF000029A604FF46053C4F27A
:102CB80002034FF46052C4F20202126822F08472D6
:102CC80022F480321A604FF46053C4F2020343F2D4
:102CD8001002C2F200425A604FF46053C4F2020379
:102CE8004FF46052C4F20202126822F480221A6081
:102CF8004FF46053C4F202034FF00002DA60BD469D
:102D080080BC704780B483B000AF0346FB7143F6C4
:102D18000203C4F202034FF000021A7043F60203E2
:102D2800C4F20203FA791A7007F10C07BD4680BC99
:102D3800704700BF80B582B000AF4FF000033B6022
:102D48004FF00003FB714FF00003BB714FF03100EF
:102D580000F0D2FD0346BB713B6803F101033B6001
:102D68003B68B3F5A06F02D0BB79002BEED04FF0D3
:102D7800310000F0C1FD0346002B03D04FF00103E2
:102D8800FB7102E04FF00003FB71FB79184607F175
:102D98000807BD4680BD00BF80B485B000AF0346BC
:102DA800FB714FF00003FB604FF46053C4F2020361
:102DB8001B68FB60FB6823F0F803FB60FB794FEAB4
:102DC800C303FA681343FB604FF46053C4F2020371
:102DD800FA681A6007F11407BD4680BC704700BF47
:102DE80080B483B000AF0346FB714FF00003C4F218
:102DF8004723FA791A6007F10C07BD4680BC704773
:102E080080B483B000AF0346FB7143F67003C4F28D
:102E180002034FF000021A7043F67003C4F2020373
:102E28004FF000021A70FB79012B02D0042B08D056
:102E38000FE043F67003C4F202034FF001021A7068
:102E480008E043F67003C4F202034FF005021A705B
:102E580000E000BF07F10C07BD4680BC704700BF0B
:102E680080B483B000AF0346FB714FF46863C4F2CB
:102E78004723FA791A6007F10C07BD4680BC7047F2
:102E880080B485B000AFF860B9607A603B604FF4F9
:102E98006053C4F202037A684FEA8211BA68114398
:102EA8003A684FEA520202F1FF324FEA02421143F6
:102EB800FA681143BA694FEA02620A435A6007F195
:102EC8001407BD4680BC704780B483B000AF03468A
:102ED800FB714FF06003C4F24723FA791A6007F1D7
:102EE8000C07BD4680BC704780B483B000AF7860E3
:102EF80039604FF46053C4F202037A684FEA8211D2
:102F08003A684FEA02720A43C3F8842007F10C07B3
:102F1800BD4680BC704700BF80B483B000AF034695
:102F2800FB714FF06803C4F24723FA791A6007F17E
:102F38000C07BD4680BC704780B483B000AF034621
:102F4800FB714FF04C03C4F24723FA791A6007F17A
:102F58000C07BD4680BC704780B485B000AF786070
:102F680039604FF00003FB604FF46053C4F2020372
:102F78009B68FB60FB6823F0EC63FB607A683B6846
:102F88001343FA681343FB604FF46053C4F202031F
:102F9800FA689A6007F11407BD4680BC704700BF05
:102FA80080B485B000AF786039604FF00003FB60F3
:102FB8004FF46053C4F202039B68FB60FB6823F084
:102FC8007843FB607A683B681343FA681343FB60F5
:102FD8004FF46053C4F20203FA689A6007F11407C9
:102FE800BD4680BC704700BF80B485B000AF786034
:102FF8004FF00003FB604FF46053C4F202039B6878
:10300800FB60FB6823F00303FB60FA687B681343EB
:10301800FB604FF46053C4F20203FA689A6007F148
:103028001407BD4680BC704780B400AF4FF46053AE
:10303800C4F202039B68DBB203F00C03DBB2184650
:10304800BD4680BC704700BF80B485B000AF7860D3
:103058004FF00003FB604FF46053C4F202039B6817
:10306800FB60FB6823F0F003FB60FA687B6813439E
:10307800FB604FF46053C4F20203FA689A6007F1E8
:103088001407BD4680BC704780B485B000AF786037
:103098004FF00003FB604FF46053C4F202039B68D7
:1030A800FB60FB6823F4E053FB60FA687B6813431A
:1030B800FB604FF46053C4F20203FA689A6007F1A8
:1030C8001407BD4680BC704780B485B000AF7860F7
:1030D8004FF00003FB604FF46053C4F202039B6897
:1030E800FB60FB6823F46043FB607B684FEAC30323
:1030F800FA681343FB604FF46053C4F20203FA68A2
:103108009A6007F11407BD4680BC704780B489B047
:1031180000AF78604FF00003BB614FF000037B61A4
:103128004FF00003FB614FF002033B614FF00003D7
:10313800FB604FF00203BB604FF46053C4F202031C
:103148009B6803F00C03BB61BB69042B0AD0082BF6
:103158000FD0002B60D17A684FF41053C0F2F403FB
:10316800136060E07A684FF49053C0F27A031360FA
:1031780059E04FF46053C4F202035B6803F4800320
:103188004FEA9353FB604FF46053C4F202035B6849
:1031980003F03F03BB60FB68002B14D04FF490533F
:1031A800C0F27A03BA68B3FBF2F24FF46053C4F288
:1031B8000203596847F6C0730B404FEA931303FBA9
:1031C80002F3FB6113E04FF41053C0F2F403BA6842
:1031D800B3FBF2F24FF46053C4F20203596847F6A6
:1031E800C0730B404FEA931303FB02F3FB614FF4E8
:1031F8006053C4F202035B6803F440334FEA13439D
:1032080003F101034FEA43033B61FA693B69B2FBEF
:10321800F3F27B681A6006E07A684FF41053C0F244
:10322800F403136000BF4FF46053C4F202039B68B9
:1032380003F0F003BB61BB694FEA1313BB6140F2B3
:10324800B803C2F20003BA699B181B78DBB27B6132
:103258007B681A687B6922FA03F27B685A604FF42C
:103268006053C4F202039B6803F4E053BB61BB697B
:103278004FEA9323BB6140F2B803C2F20003BA6974
:103288009B181B78DBB27B617B685A687B6922FAE2
:1032980003F27B689A604FF46053C4F202039B68A0
:1032A80003F46043BB61BB694FEA5333BB6140F22F
:1032B800B803C2F20003BA699B181B78DBB27B61C2
:1032C8007B685A687B6922FA03F27B68DA6007F147
:1032D8002407BD4680BC704780B485B000AF7860D5
:1032E8004FF00003FB607B6803F44073B3F5407F45
:1032F80017D14FF46053C4F202039B68FB60FB686C
:1033080023F4F813FB607B6823F0704323F44073C5
:10331800FA681343FB604FF46053C4F20203FA687F
:103328009A604FF46053C4F202034FF46052C4F23F
:103338000202116F7A684FEA02524FEA12520A43A8
:103348001A6707F11407BD4680BC704780B483B084
:1033580000AF0346FB7140F63C63C4F24723FA7999
:103368001A6007F10C07BD4680BC704780B483B073
:1033780000AF0346FB714FF46463C4F24723FA7944
:103388001A6007F10C07BD4680BC704780B483B053
:1033980000AF78604FF4AE73C4F247237A681A60BE
:1033A80007F10C07BD4680BC704700BF80B483B0EE
:1033B80000AF78600B46FB70FB78002B0CD04FF405
:1033C8006053C4F202034FF46052C4F20202116B5C
:1033D8007A680A431A630DE04FF46053C4F202039B
:1033E8004FF46052C4F20202116B7A686FEA02026B
:1033F8000A401A6307F10C07BD4680BC704700BF3E
:1034080080B483B000AF78600B46FB70FB78002B6C
:103418000CD04FF46053C4F202034FF46052C4F26C
:103428000202516B7A680A435A630DE04FF4605305
:10343800C4F202034FF46052C4F20202516B7A687C
:103448006FEA02020A405A6307F10C07BD4680BCC6
:10345800704700BF80B483B000AF78600B46FB7044
:10346800FB78002B0CD04FF46053C4F202034FF4E6
:103478006052C4F20202916B7A680A439A630DE0C3
:103488004FF46053C4F202034FF46052C4F20202D4
:10349800916B7A686FEA02020A409A6307F10C0797
:1034A800BD4680BC704700BF80B483B000AF786071
:1034B8000B46FB70FB78002B0CD04FF46053C4F222
:1034C80002034FF46052C4F20202116C7A680A4394
:1034D8001A640DE04FF46053C4F202034FF46052D3
:1034E800C4F20202116C7A686FEA02020A401A6496
:1034F80007F10C07BD4680BC704700BF80B483B09D
:1035080000AF78600B46FB70FB78002B0CD04FF4B3
:103518006053C4F202034FF46052C4F20202516CC9
:103528007A680A435A640DE04FF46053C4F2020308
:103538004FF46052C4F20202516C7A686FEA0202D8
:103548000A405A6407F10C07BD4680BC704700BFAB
:1035580080B483B000AF78600B46FB70FB78002B1B
:103568000CD04FF46053C4F202034FF46052C4F21B
:10357800020211697A680A431A610DE04FF4605338
:10358800C4F202034FF46052C4F2020211697A686D
:103598006FEA02020A401A6107F10C07BD4680BCB7
:1035A800704700BF80B483B000AF78600B46FB70F3
:1035B800FB78002B0CD04FF46053C4F202034FF495
:1035C8006052C4F2020251697A680A435A610DE0F6
:1035D8004FF46053C4F202034FF46052C4F2020283
:1035E80051697A686FEA02020A405A6107F10C07CA
:1035F800BD4680BC704700BF80B483B000AF786020
:103608000B46FB70FB78002B0CD04FF46053C4F2D0
:1036180002034FF46052C4F2020291697A680A43C5
:103628009A610DE04FF46053C4F202034FF4605204
:10363800C4F2020291697A686FEA02020A409A614A
:1036480007F10C07BD4680BC704700BF80B483B04B
:1036580000AF78600B46FB70FB78002B0CD04FF462
:103668006053C4F202034FF46052C4F20202116ABA
:103678007A680A431A620DE04FF46053C4F20203F9
:103688004FF46052C4F20202116A7A686FEA0202C9
:103698000A401A6207F10C07BD4680BC704700BF9C
:1036A80080B483B000AF78600B46FB70FB78002BCA
:1036B8000CD04FF46053C4F202034FF46052C4F2CA
:1036C8000202516A7A680A435A620DE04FF4605365
:1036D800C4F202034FF46052C4F20202516A7A68DB
:1036E8006FEA02020A405A6207F10C07BD4680BC25
:1036F800704700BF80B483B000AF78600B46FB70A2
:10370800FB78002B0CD04FF46053C4F202034FF443
:103718006052C4F20202116D7A680A431A650DE01C
:103728004FF46053C4F202034FF46052C4F2020231
:10373800116D7A686FEA02020A401A6507F10C07F0
:10374800BD4680BC704700BF80B483B000AF7860CE
:103758000B46FB70FB78002B0CD04FF46053C4F27F
:1037680002034FF46052C4F20202516D7A680A43B0
:103778005A650DE04FF46053C4F202034FF46052EF
:10378800C4F20202516D7A686FEA02020A405A6571
:1037980007F10C07BD4680BC704700BF80B483B0FA
:1037A80000AF78600B46FB70FB78002B0CD04FF411
:1037B8006053C4F202034FF46052C4F20202916DE6
:1037C8007A680A439A650DE04FF46053C4F2020325
:1037D8004FF46052C4F20202916D7A686FEA0202F5
:1037E8000A409A6507F10C07BD4680BC704700BFC8
:1037F80080B483B000AF78600B46FB70FB78002B79
:103808000CD04FF46053C4F202034FF46052C4F278
:103818000202116E7A680A431A660DE04FF460538B
:10382800C4F202034FF46052C4F20202116E7A68C5
:103838006FEA02020A401A6607F10C07BD4680BC0F
:10384800704700BF80B483B000AF78600B46FB7050
:10385800FB78002B0CD04FF46053C4F202034FF4F2
:103868006052C4F20202516E7A680A435A660DE049
:103878004FF46053C4F202034FF46052C4F20202E0
:10388800516E7A686FEA02020A405A6607F10C071D
:10389800BD4680BC704700BF80B483B000AF02460D
:1038A8000B46FA71BB71BB79002B0ED043F60D03A2
:1038B800C4F2020343F60D02C4F202021278D1B236
:1038C800FA790A43D2B21A7010E043F60D03C4F233
:1038D800020343F60D02C4F202021278D1B2FA7959
:1038E8006FEA0202D2B20A40D2B21A7007F10C078C
:1038F800BD4680BC704700BF80B487B000AF0346A8
:10390800FB714FF00003FB604FF000037B614FF049
:103918000003FB74FB794FEA5313DBB2FB60FB68CF
:10392800012B06D14FF46053C4F202031B687B617C
:103938000FE0FB68022B06D14FF46053C4F2020378
:103948001B6F7B6105E04FF46053C4F202035B6FA9
:103958007B61FB7903F01F03FB60FB687A6922FA3D
:1039680003F303F00103002B03D04FF00103FB74B2
:1039780002E04FF00003FB74FB7C184607F11C07BC
:10398800BD4680BC704700BF80B400AF4FF46053A1
:10399800C4F202034FF46052C4F20202526F42F0C2
:1039A80080725A67BD4680BC704700BF80B485B03E
:1039B80000AF0346FB714FF00003FB734FF46053F5
:1039C800C4F20203DA68FB791340002B03D04FF0EE
:1039D8000103FB7302E04FF00003FB73FB7B184607
:1039E80007F11407BD4680BC704700BF80B483B0A0
:1039F80000AF0346FB7143F60E03C4F20203FA79E3
:103A08001A7007F10C07BD4680BC704780B582B0BC
:103A180000AF78607A684FF48053C4F201039A4289
:103A28000CD14FF010004FF00101FFF739FE4FF0B5
:103A380010004FF00001FFF733FE62E07A684FF4A0
:103A48008843C4F200039A420CD14FF400304FF07F
:103A58000101FFF7FBFD4FF400304FF00001FFF7C5
:103A6800F5FD4EE07A684FF49043C4F200039A42A1
:103A78000CD14FF480204FF00101FFF7E7FD4FF420
:103A880080204FF00001FFF7E1FD3AE07A684FF43B
:103A98009843C4F200039A420CD14FF400204FF02F
:103AA8000101FFF7D3FD4FF400204FF00001FFF7AD
:103AB800CDFD26E07A684FF4A043C4F200039A4291
:103AC8000CD14FF480104FF00101FFF7BFFD4FF408
:103AD80080104FF00001FFF7B9FD12E07A684FF44B
:103AE800A053C4F201039A420BD14FF020004FF0CB
:103AF8000101FFF7D5FD4FF020004FF00001FFF75F
:103B0800CFFD07F10807BD4680BD00BF80B58AB06C
:103B180000AF786039604FF000037B624FF000031C
:103B28003B624FF00003FB614FF00003BB617B6811
:103B38001B8A9BB27B627B6A23F440537B623B689F
:103B4800DB887A6A13437B627B6A9AB27B681A8243
:103B58007B689B899BB27B627B6A23F4B05323F01A
:103B68000C037B623B689A883B681B8913439AB2B3
:103B78003B685B8913439BB27A6A13437B627B6A17
:103B88009AB27B689A817B689B8A9BB27B627B6ACC
:103B980023F440737B623B689B897A6A13437B6298
:103BA8007B6A9AB27B689A8207F108031846FFF786
:103BB800ADFA7A684FF48053C4F201039A4206D0F2
:103BC8007A684FF4A053C4F201039A4202D17B6988
:103BD8003B6201E03B693B627B689B899BB29BB27D
:103BE8001BB2002B0FDA3A6A13464FEA83039B187D
:103BF8004FEA83029A183B681B684FEA4303B2FBFB
:103C0800F3F3FB610EE03A6A13464FEA83039B180D
:103C18004FEA83029A183B681B684FEA8303B2FB9A
:103C2800F3F3FB61FA6948F21F53C5F2EB13A3FBE8
:103C380002134FEA53134FEA03137B627B6A4FEA7E
:103C480013134FF0640202FB03F3FA69D31ABB6142
:103C58007B689B899BB29BB21BB2002B12DABB69B3
:103C68004FEAC30303F1320248F21F53C5F2EB13C4
:103C7800A3FB02134FEA531303F007037A6A1343B3
:103C88007B6211E0BB694FEA031303F1320248F289
:103C98001F53C5F2EB13A3FB02134FEA531303F0B0
:103CA8000F037A6A13437B627B6A9AB27B681A8134
:103CB80007F12807BD4680BD80B483B000AF7860A7
:103CC8007B684FF416521A607B684FF000029A80A6
:103CD8007B684FF00002DA807B684FF000021A819F
:103CE8007B684FF00C025A817B684FF000029A8182
:103CF80007F10C07BD4680BC704700BF80B485B093
:103D080000AF786039604FF00003FB607B681B8A66
:103D18009BB2FB60FB6823F47063FB603B681A8806
:103D28003B685B8813439AB23B689B8813439AB2FB
:103D38003B68DB8813439BB2FA681343FB60FB685C
:103D48009AB27B681A8207F11407BD4680BC704797
:103D580080B483B000AF78607B684FF000021A80AF
:103D68007B684FF000025A807B684FF000029A800F
:103D78007B684FF00002DA8007F10C07BD4680BC73
:103D8800704700BF80B483B000AF78600B46FB700B
:103D9800FB78002B08D07B689B899BB243F40053C7
:103DA8009AB27B689A8107E07B689B899BB223F46F
:103DB80000539AB27B689A8107F10C07BD4680BC14
:103DC800704700BF80B483B000AF78600B46FB70CB
:103DD8007B681B8B9BB223F0FF039AB27B681A8324
:103DE8007B681B8B9AB2FB789BB213439AB27B68B1
:103DF8001A8307F10C07BD4680BC704780B483B0B6
:103E080000AF78600B46FB70FB78002B0AD07B680C
:103E18009B899BB26FEA43436FEA53439AB27B682C
:103E28009A8109E07B689B899BB24FEA43434FEA3A
:103E380053439AB27B689A8107F10C07BD4680BC50
:103E4800704700BF80B483B000AF78600B46FB704A
:103E5800FB78002B08D07B689B8A9BB243F40063F5
:103E68009AB27B689A8207E07B689B8A9BB223F4AC
:103E780000639AB27B689A8207F10C07BD4680BC42
:103E8800704700BF80B483B000AF78600B467B807A
:103E98007B884FEAC3534FEAD3539AB27B689A8020
:103EA80007F10C07BD4680BC704700BF80B483B0E3
:103EB80000AF78607B689B889BB24FEAC3534FEA98
:103EC800D3539BB2184607F10C07BD4680BC704718
:103ED80080B483B000AF78600B46FB707B681B8AA8
:103EE8009BB223F00F039AB27B681A827B681B8A05
:103EF8009AB2FB789BB213439AB27B681A8207F195
:103F08000C07BD4680BC704780B483B000AF7860B2
:103F18000B46FB70FB78002B08D07B689B899BB213
:103F280043F002039AB27B689A8107E07B689B8919
:103F38009BB223F002039AB27B689A8107F10C07BF
:103F4800BD4680BC704700BF80B483B000AF7860C6
:103F58000B467B807B689B899BB223F400639AB2F3
:103F68007B689A817B689B899AB27B8813439AB253
:103F78007B689A8107F10C07BD4680BC704700BF7B
:103F880080B483B000AF78600B467B807B681B8A67
:103F98009BB223F020039AB27B681A827B681B8A43
:103FA8009AB27B8813439AB27B681A8207F10C078E
:103FB800BD4680BC704700BF80B483B000AF786056
:103FC8000B46FB70FB78002B08D07B681B8A9BB2E2
:103FD80043F480439AB27B681A8207E07B681B8AA5
:103FE8009BB223F480439AB27B681A8207F10C07CC
:103FF800BD4680BC704700BF80B483B000AF786016
:104008007B689B899BB243F001039AB27B689A81D3
:1040180007F10C07BD4680BC704700BF80B483B071
:1040280000AF78600B46FB70FB78002B08D07B68EC
:104038009B8A9BB243F008039AB27B689A8207E096
:104048007B689B8A9BB223F008039AB27B689A82AA
:1040580007F10C07BD4680BC704700BF80B483B031
:1040680000AF78600B46FB707B681B8B9BB2DBB2A2
:104078009AB27B681A837B681B8B9AB2FB789BB2D7
:104088004FEA03239BB213439AB27B681A8307F162
:104098000C07BD4680BC704780B483B000AF786021
:1040A8000B46FB70FB78002B08D07B689B8A9BB281
:1040B80043F020039AB27B689A8207E07B689B8A68
:1040C8009BB223F020039AB27B689A8207F10C070F
:1040D800BD4680BC704700BF80B483B000AF786035
:1040E8000B46FB70FB78002B08D07B689B8A9BB241
:1040F80043F010039AB27B689A8207E07B689B8A38
:104108009BB223F010039AB27B689A8207F10C07DE
:10411800BD4680BC704700BF80B483B000AF7860F4
:104128000B467B807B689B8A9BB223F004039AB280
:104138007B689A827B689B8A9AB27B8813439AB27F
:104148007B689A8207F10C07BD4680BC704700BFA8
:1041580080B483B000AF78600B46FB70FB78002B0F
:1041680008D07B689B8A9BB243F002039AB27B68B3
:104178009A8207E07B689B8A9BB223F002039AB27B
:104188007B689A8207F10C07BD4680BC704700BF68
:1041980080B483B000AF786013460A467A807B709B
:1041A8007B78002B08D07B689B8A9AB27B88134364
:1041B8009AB27B689A820AE07B689B8A9AB27B886B
:1041C8006FEA03039BB213409AB27B689A8207F1A5
:1041D8000C07BD4680BC704780B487B000AF7860DC
:1041E80013460A467A807B704FF000033B614FF01C
:1041F8000003FB604FF00003BB604FF000037B61DE
:104208007B687B617B88DBB24FEA5313DBB23B618F
:104218007B8803F01F03FB60FB684FF0010202FA82
:1042280003F3BB603B69012B04D17B6903F10C03E9
:104238007B610BE03B69022B04D17B6903F110031E
:104248007B6103E07B6903F114037B617B78002BBE
:1042580006D07B697A691168BA680A431A6007E070
:104268007B697A691168BA686FEA02020A401A60C3
:1042780007F11C07BD4680BC704700BF80B485B0FD
:1042880000AF78600B467B804FF00003FB737B68C0
:104298001B889AB27B8813409BB2002B03D04FF047
:1042A8000103FB7302E04FF00003FB73FB7B18462E
:1042B80007F11407BD4680BC704700BF80B483B0C7
:1042C80000AF78600B467B807B886FEA03039AB265
:1042D8007B681A8007F10C07BD4680BC704700BF99
:1042E80080B487B000AF78600B467B804FF0000346
:1042F800FB604FF000037B614FF00003BB604FF0A1
:104308000003FB747B88DBB24FEA5313DBB2BB605C
:104318007B8803F01F037B617B694FF0010202FA7F
:1043280003F37B61BB68012B06D17B689B899BB239
:104338007A6913407B610FE0BB68022B06D17B686A
:104348001B8A9BB27A6913407B6105E07B689B8A74
:104358009BB27A6913407B617B884FEA13239BB237
:10436800FB60FB684FF0010202FA03F3FB607B6815
:104378001B889BB2FA681340FB607B69002B06D050
:10438800FB68002B03D04FF00103FB7402E04FF0F1
:104398000003FB74FB7C184607F11C07BD4680BC74
:1043A800704700BF80B485B000AF78600B467B8053
:1043B8004FF00003FB814FF00003BB817B884FEA7D
:1043C8001323FB81FB894FF0010202FA03F3BB813F
:1043D800BB896FEA03039AB27B681A8007F1140756
:1043E800BD4680BC704700BF80B500AF4FF46D4339
:1043F800CEF200034FF46D42CEF20002D2F88820CC
:1044080042F47002C3F888204FF46053C4F20203E8
:104418004FF46052C4F20202126842F001021A60BC
:104428004FF46053C4F202034FF000029A604FF455
:104438006053C4F202034FF46052C4F202021268DD
:1044480022F0847222F480321A604FF46053C4F26E
:10445800020343F21002C2F200425A604FF4605362
:10446800C4F202034FF46052C4F20202126822F44A
:1044780080221A604FF46053C4F202034FF0000226
:10448800DA6000F0C1F84FF46D43CEF200034FF04C
:1044980000629A6080BD00BF80B487B000AF4FF063
:1044A80000033B614FF000037B614FF00203FB60A8
:1044B8004FF00003BB604FF002037B604FF4605382
:1044C800C4F202039B6803F00C033B613B69042BB5
:1044D8000DD0082B15D0002B69D140F2C803C2F2C9
:1044E80000034FF41052C0F2F4021A6069E040F27F
:1044F800C803C2F200034FF49052C0F27A021A6065
:104508005FE04FF46053C4F202035B6803F4800376
:104518004FEA9353BB604FF46053C4F202035B68E5
:1045280003F03F037B60BB68002B14D04FF490531B
:10453800C0F27A037A68B3FBF2F24FF46053C4F224
:104548000203596847F6C0730B404FEA931303FB05
:1045580002F37B6113E04FF41053C0F2F4037A685E
:10456800B3FBF2F24FF46053C4F20203596847F602
:10457800C0730B404FEA931303FB02F37B614FF4C4
:104588006053C4F202035B6803F440334FEA1343F9
:1045980003F101034FEA4303FB607A69FB68B2FB4E
:1045A800F3F240F2C803C2F200031A6009E040F2D5
:1045B800C803C2F200034FF41052C0F2F4021A60AA
:1045C80000BF4FF46053C4F202039B6803F0F0038A
:1045D8004FEA131240F2CC03C2F200039B5CDBB239
:1045E8003B6140F2C803C2F200031A683B6922FA31
:1045F80003F240F2C803C2F200031A6007F11C0775
:10460800BD4680BC704700BF80B483B000AF4FF098
:1046180000037B604FF000033B604FF46053C4F22B
:1046280002034FF46052C4F20202126842F480326C
:104638001A604FF46053C4F202031B6803F400339A
:104648003B607B6803F101037B603B68002B03D16F
:104658007B68B3F5A06FECD14FF46053C4F202034A
:104668001B6803F40033002B03D04FF001033B60B9
:1046780002E04FF000033B603B68012B7FD14FF411
:104688006053C4F202034FF46052C4F20202126C87
:1046980042F080521A644FF4E043C4F200034FF42E
:1046A800E042C4F20002126842F480421A604FF4F9
:1046B8006053C4F202034FF46052C4F202029268DB
:1046C8009A604FF46053C4F202034FF46052C4F28C
:1046D800020292689A604FF46053C4F202034FF4E6
:1046E8006052C4F20202926842F480529A604FF417
:1046F8006053C4F2020345F20842C0F241725A60A4
:104708004FF46053C4F202034FF46052C4F2020241
:10471800126842F080721A6000BF4FF46053C4F20E
:1047280002031B6803F00073002BF6D04FF470539C
:10473800C4F2020340F202621A604FF46053C4F2FA
:1047480002034FF46052C4F20202926822F003029C
:104758009A604FF46053C4F202034FF46052C4F2FB
:104768000202926842F002029A6000BF4FF460535E
:10477800C4F202039B6803F00C03082BF6D107F17F
:104788000C07BD4680BC704780B582B002AF43F2CB
:104798001453C2F200034FF000021A7043F60443A8
:1047A800C2F200034FF000021A6043F21053C2F243
:1047B80000034FF000021A6043F20C53C2F20003E8
:1047C8004FF000021A6040F2DC13C2F200030093BB
:1047D80043F21460C2F200004FF0010140F29C1253
:1047E800C2F2000240F22413C2F2000303F0D4FC28
:1047F800BD4680BD80B582B000AF7860786803F0B0
:1048080093FB0346184607F10807BD4680BD00BF65
:1048180080B582B000AF0346FB71FB79184603F000
:10482800B9FA07F10807BD4680BD00BF80B582B060
:1048380000AF43F21053C2F200031B68002B49D1AA
:1048480007F107031846FFF7D5FF0346002B41D0B1
:1048580043F20C53C2F200031B68002B07D1FB790B
:104868001A4643F20C53C2F200031A6032E043F6D0
:104878000443C2F200031A68F97943F21453C2F2EE
:104888000003995402F1010243F60443C2F2000303
:104898001A6043F60443C2F200031A6843F20C5349
:1048A800C2F200031B689A4214D143F60443C2F2D1
:1048B80000034FF000021A6043F21053C2F20003E3
:1048C8004FF001021A6043F20C53C2F200034FF09A
:1048D80000021A6007F10807BD4680BD80B400AF2A
:1048E80043F21053C2F200031B68002B0BD043F2B3
:1048F8001053C2F200034FF000021A6043F214533F
:10490800C2F2000301E04FF000031846BD4680BC28
:10491800704700BF80B582B000AF786008E07B6860
:104928001B787A6802F101027A601846FFF770FF77
:104938007B681B78002BF2D17B681B787A6802F1C0
:1049480001027A601846FFF763FF07F10807BD46C2
:1049580080BD00BF80B500AF43F21460C2F2000012
:1049680002F070F880BD00BF80B500AF43F2146359
:10497800C2F200039B7A002B13D04EF61053CEF2EE
:1049880000034EF61052CEF20002126822F0060220
:104998001A60FFF729FD43F21460C2F2000001F02B
:1049A800D5FB4FF48020FDF7BDFE80BD80B483B0F9
:1049B80000AF786007F10C07BD4680BC704700BFA8
:1049C80080B483B000AF78600B46FB7007F10C072A
:1049D800BD4680BC704700BF80B584B000AF78602A
:1049E8004FF001004FF00101FEF7E0FC4FF4D853FF
:1049F800BB604FF003037B734FF002033B734FF030
:104A08000003BB734FF00003FB7307F108034FF07B
:104A18000000C4F202001946FDF750FF4FF00000F5
:104A2800C4F202004FF008014FF00A02FEF7D4F872
:104A38004FF00000C4F202004FF009014FF00A02E3
:104A4800FEF7CAF84FF00000C4F202004FF00B0165
:104A58004FF00A02FEF7C0F84FF00000C4F202005F
:104A68004FF00C014FF00A02FEF7B6F84FF48063DE
:104A7800BB604FF00103BB734FF00103FB734FF0B2
:104A880003037B7307F108034FF00000C4F2020030
:104A98001946FDF713FF4FF00000C4F202004FF073
:104AA8000A014FF00A02FEF797F84FF480404FF0E2
:104AB8000101FEF723FD4FF080004FF00101FEF7E2
:104AC8009FFC4FF080504FF00101FEF7BFFD4FF003
:104AD8000100FDF727FE07F11007BD4680BD00BFA6
:104AE80080B584B000AF78604FF4C060FDF7A2FADB
:104AF8004FF043033B734FF001037B734FF0030305
:104B0800BB734FF00103FB7307F10C031846FDF765
:104B1800A5FA07F11007BD4680BD00BF80B485B077
:104B280000AF78604FF00003FB607A6813464FEAE5
:104B380003139B1A4FEAC3031A4644F62513C2F21D
:104B48009243A3FB0213D21A4FEA52029B184FEA70
:104B58009303BB6000E000BFFB6803F10103FB6047
:104B6800FA68BB689A42F6D900BF07F11407BD4638
:104B780080BC704780B582B000AF78607B684FF426
:104B88007A7202FB03F31846FFF7C8FF07F108071C
:104B9800BD4680BD80B485B000AF78604FF000039B
:104BA800FB607B68DB684FF0FF325A607B68DB682C
:104BB8004FF0FF325A61FB6843F00043FB60FB682B
:104BC80043F40063FB607B68DB68FA689A6107F16D
:104BD8001407BD4680BC704780B586B000AF7860CA
:104BE8004FF00003FB744FF000037B614FF00003AC
:104BF800FB604FF00300FFF791FF7B68DB681B69E0
:104C0800FB607B6903F101037B617A694FF45463AC
:104C1800C0F203039A4202D94FF000032AE0FB686E
:104C280003F00043002BE4D04FF000037B61FB68E6
:104C380043F00103FB607B68DB68FA681A617B68F4
:104C4800DB681B69FB607B6903F101037B617A699F
:104C58004FF45463C0F203039A4205D8FB6803F08B
:104C68000103002BEBD100E000BF4FF00300FFF77A
:104C780055FFFB7C184607F11807BD4680BD00BFED
:104C880080B489B000AFF860B960FA71BB804FF0AA
:104C98000003FB76FB68DB78002B2DD14FF0000377
:104CA8007B614FF00003FB61BB8803F1030303F151
:104CB8000302002BB8BF13464FEAA3037B61FB79BD
:104CC800FA6803F132034FEA8303D3189B683B6108
:104CD8004FF00003FB610BE0BB681A683B691A6080
:104CE800FB6903F10103FB61BB6803F10403BB60CB
:104CF800FA697B699A42EFD3FB7E184607F12407CD
:104D0800BD4680BC704700BF80B489B000AFF86072
:104D1800B9601346FB804FF00003FB61FB8803F189
:104D2800030303F10302002BB8BF13464FEAA303A2
:104D3800BB61FB68D3F8D0307B614FF00003FB61A7
:104D48000BE07B691A68BB681A60FB6903F1010311
:104D5800FB61BB6803F10403BB60FA69BB699A4253
:104D6800EFD3BB68184607F12407BD4680BC7047DF
:104D780080B487B000AF78600B46FB704FF000033B
:104D88003B614FF00003FB737B684FF00002DA7061
:104D98007B684FF001029A707B684FF040029A805E
:104DA800FB78012B17D14FF0A0433B617B684FF094
:104DB8000102DA727B684FF008021A707B684FF0C4
:104DC80004025A707B684FF4A072DA807B684FF057
:104DD80002021A7217E0FB78002B14D14FF000037F
:104DE800C4F204033B617B684FF00002DA727B680F
:104DF8004FF00C021A707B684FF006025A707B68FD
:104E08004FF4A062DA803A697B68DA603B6903F59F
:104E180000631A467B681A614FF000037B6123E048
:104E28007B694FEA43123B69D31803F510631A46AE
:104E380079687B6903F104034FEA8303CB189A600E
:104E48007B694FEA43123B69D31803F530631A466E
:104E580079687B6903F114034FEA8303CB185A601E
:104E68007B6903F101037B617B685B781A467B6988
:104E78009A42D5D83B6903F580631A467B685A6124
:104E88003B6903F588631A467B68C3F8CC204FF06A
:104E980000037B6113E07B694FEA43123B69D31837
:104EA80003F5A0631A4679687B6903F122034FEA88
:104EB8008303CB189A607B6903F101037B617B68EC
:104EC8001B781A467B699A42E5D84FF000037B614C
:104ED80013E07B694FEA03323B69D31803F580532B
:104EE8001A4679687B6903F132034FEA8303CB18CA
:104EF8009A607B6903F101037B617B681B781A4622
:104F08007B699A42E5D83B6903F560631A467B687A
:104F1800C3F80C21FB7B184607F11C07BD4680BC73
:104F2800704700BF80B588B000AF78604FF00003CD
:104F3800FB774FF00003BB614FF000037B614FF03C
:104F48000003FB607B681B7A012B51D17B68DB680F
:104F58009B6B7B617B696FF310437B617B685B7A3A
:104F6800002B03D07B6943F480137B617B68DB688B
:104F78007A699A634FF00003BB617B68DB68DB6882
:104F8800BB61BB696FF38613BB61BB696FF3965353
:104F9800BB61BB6943F01003BB61BB696FF3C3031B
:104FA800BB61BB696FF3C713BB61BB696FF3514347
:104FB800BB61BB696FF3D343BB617B68DB68BA69CC
:104FC800DA607868FFF708FE7B68DB78012B40F031
:104FD8008980FB684FF0050262F34403FB60FB68BD
:104FE80043F02003FB607B68DB68FA689A6079E02D
:104FF8007B68DB68DB68BB61BB6943F04003BB616E
:105008007B68DB68BA69DA607868FFF7E5FD4FF01E
:1050180000037B617B6943F480337B617B681B7A87
:10502800032B03D17B6943F400337B617B6943F431
:1050380080237B617B6943F400237B617B6943F4B4
:1050480000137B617B685B7A002B03D07B6943F498
:1050580080137B617B68DB687A699A634FF0140080
:10506800FFF788FD7B68DB68DB68BB617B681B7AC0
:10507800032B03D1BB6943F48033BB617B68DB68D6
:10508800BA69DA607B681B7A032B2BD17B68DB68F3
:105098001B6B3B613B694FF0010262F39B633B6111
:1050A8003B696FF3D7533B613B6943F080533B61E6
:1050B8003B694FF02D0262F316433B617B68DB6866
:1050C8003A691A634FF0C800FFF754FD3B6943F48F
:1050D80000033B617B68DB683A691A634FF0C800DC
:1050E800FFF748FD7B68DB78012B11D17B68DB6813
:1050F8009B68FB60FB684FF0050262F34403FB60AA
:10510800FB6843F02003FB607B68DB68FA689A6001
:10511800FB7F184607F12007BD4680BD80B485B0E7
:1051280000AF78604FF00003FB734FF00003BB60E3
:10513800BB6843F00103BB607B68DB687A68D268B0
:105148009168BA680A439A60FB7B184607F114070E
:10515800BD4680BC704700BF80B485B000AF7860A2
:105168004FF00003FB734FF00003BB60BB6843F0D4
:105178000103BB607B68DB687A68D2689168BA68AB
:105188006FEA02020A409A60FB7B184607F114078F
:10519800BD4680BC704700BF80B586B000AF786060
:1051A80039604FF00003FB744FF000037B614FF050
:1051B8000003FB60FB6843F02003FB603B68DBB245
:1051C80003F01F03DAB2FB6862F38A13FB607B68A3
:1051D800DB68FA681A617B68DB681B69FB607B69BE
:1051E80003F101037B617A694FF45463C0F203034E
:1051F8009A4205D8FB6803F02003002BEBD100E0AE
:1052080000BF4FF00300FFF789FCFB7C184607F14D
:105218001807BD4680BD00BF80B586B000AF786076
:105228004FF00003FB744FF000037B614FF0000365
:10523800FB60FB6843F01003FB607B68DB68FA687F
:105248001A617B68DB681B69FB607B6903F10103FA
:105258007B617A694FF45463C0F203039A4205D81C
:10526800FB6803F01003002BEBD100E000BF4FF008
:105278000300FFF753FCFB7C184607F11807BD46EF
:1052880080BD00BF80B584B000AF78600B46FB706E
:105298004FF00003FB737B68DB68DB68BB60BB68AF
:1052A8006FF35D73BB60BB686FF39E73BB60FB7885
:1052B800012B04D1BB6843F00053BB6006E0FB78C8
:1052C800002B03D1BB6843F08043BB607B68DB687D
:1052D800BA68DA604FF03200FFF74CFCFB7B1846E7
:1052E80007F11007BD4680BD80B483B000AF786079
:1052F8007B68DB685B6903F00103184607F10C075C
:10530800BD4680BC704700BF80B582B000AF7860F2
:105318007868FFF7E9FF0346012B0CBF0023012340
:10532800DBB2184607F10807BD4680BD80B582B0DC
:1053380000AF78607868FFF7D7FF0346012B14BFEA
:1053480000230123DBB2184607F10807BD4680BDDC
:1053580080B485B000AF78604FF00003FB607B68D5
:10536800DB685B69FB607B68DB689B69FA681340F4
:10537800FB60FB68184607F11407BD4680BC704700
:1053880080B483B000AF78607B68DB685B681846E0
:1053980007F10C07BD4680BC704700BF80B485B0DC
:1053A80000AF78600B46FB707B681B691B68FB606D
:1053B800FB7803F00303DAB2FB6862F30103FB60D6
:1053C8007B681B69FA681A6007F11407BD4680BC40
:1053D800704700BF80B58CB000AF78604FF0000315
:1053E80087F82B304FF000037B624FF000033B62DD
:1053F8004FF00003FB614FF00003BB614FF0000367
:105408007B617B68D3F80C314FF000021A607B682F
:105418001B691B683B623B6A6FF3CC233B627B686A
:105428001B693A6A1A607B68DB7A012B45D1786878
:105438004FF00301FFF7B2FF7B68DB684FF0800293
:105448005A62FB694FF0400262F31F43FB61FB693C
:105458004FF0800262F30F03FB617B68DB68FA6937
:105468009A62BA8BFB8BD3189BB23B83BB694FF014
:10547800800262F31F43BB617B68DB68BA69C3F8CB
:1054880004213A8B7B8BD3189BB23B83BB696FF3A8
:105498001F43BB617B68DB68BA69C3F808213A8B94
:1054A8007B8BD3189BB23B83BB696FF31F43BB61F4
:1054B8007B68DB68BA69C3F80C2178684FF0100183
:1054C800FFF76AFE7868FFF7A7FE7B681B694FF055
:1054D80000021A617B681B694FF000025A617B6801
:1054E8001B694FF0FF329A617B681B694FF000021D
:1054F800DA614FF00003FB6243E07A68FB6A03F16C
:1055080004034FEA8303D3189B681B687B6297F8F0
:10551800273023F07F03DBB2002B0BD04FF00003C2
:105528007B627B6A43F080437B627B6A43F0006363
:105538007B6202E04FF000037B627A68FB6A03F14A
:1055480004034FEA8303D3189B687A6A1A607A685F
:10555800FB6A03F104034FEA8303D3189B684FF0F7
:1055680000021A617A68FB6A03F104034FEA8303B5
:10557800D3189B684FF0FF029A60FB6A03F101039E
:10558800FB627B685B781A46FB6A9A42B5D84FF093
:105598000003FB6242E07A68FB6A03F114034FEAF6
:1055A8008303D3185B681B68FB60FB7B23F07F03D6
:1055B800DBB2002B0BD04FF00003FB60FB6843F01D
:1055C8008043FB60FB6843F00063FB6002E04FF040
:1055D8000003FB607A68FB6A03F114034FEA830354
:1055E800D3185B68FA681A607A68FB6A03F11403D7
:1055F8004FEA8303D3185B684FF000021A617A6898
:10560800FB6A03F114034FEA8303D3185B684FF076
:10561800FF029A60FB6A03F10103FB627B685B7817
:105628001A46FB6A9A42B6D84FF000037B617B6941
:1056380043F480737B617B681B697A68126911691E
:105648007A696FEA020211407A690A431A617B6833
:10565800DB78012B1ED14FF000033B613B6943F01F
:1056680001033B613B6943F002033B613B694FF037
:10567800400262F38A033B613B6943F480333B6138
:105688003B694FF0400262F359433B617B681B69F9
:105698003A691A63786800F007F897F82B301846CB
:1056A80007F13007BD4680BD80B584B000AF786093
:1056B8004FF00003FB734FF00003BB607B68DB68AF
:1056C8004FF000029A617B68DB684FF0FF325A6145
:1056D8007868FFF75FFA7B68DB78002B03D1BB683B
:1056E80043F01003BB60BB6843F40063BB60BB6856
:1056F80043F48053BB60BB6843F40053BB60BB6892
:1057080043F48023BB60BB6843F40023BB60BB68E1
:1057180043F00803BB60BB6843F48013BB60BB68FD
:1057280043F40013BB607B68DB687A68D2689169D0
:10573800BA686FEA02021140BA680A439A61FB7BB1
:10574800184607F11007BD4680BD00BF80B485B07C
:1057580000AF78604FF00003FB737B681B699B68A0
:10576800BB60BB68C3F34103DBB2022B0BD0032B36
:1057780005D0012B03D04FF00303FB7307E04FF074
:105788000203FB7303E04FF00103FB7300BFFB7BD5
:10579800184607F11407BD4680BC704780B487B02F
:1057A80000AF78604FF00003FB754FF00003BB605B
:1057B8007B681B699B683B617B689B691B68FB6016
:1057C8003B69C3F34103DBB2022B04D0FB686FF3E0
:1057D8000A03FB6006E0FB684FF0030262F30A036A
:1057E800FB6000BF7B689B69FA681A60BB6843F47A
:1057F8008073BB607B681B697A6812695168BA68F4
:105808006FEA02021140BA680A435A60FB7D1846E3
:1058180007F11C07BD4680BC704700BF80B487B045
:1058280000AF786039604FF00003FB744FF000035D
:10583800FB604FF00003BB603B685B78012B12D123
:105848003B681B787A6803F104034FEA8303D31893
:105858009B687B613B681B784FF0010202FA03F3F7
:105868009BB23B8114E03B681B787A6803F1140310
:105878004FEA8303D3185B687B613B681B784FF062
:10588800010202FA03F39AB2BB6862F31F43BB60DA
:105898007B691B68FB607B7B23F07F03DBB2002BFB
:1058A80029D13B689B689BB24FEA43534FEA535355
:1058B8009AB2FB6862F30A03FB603B68DB7803F08B
:1058C8000303DAB2FB6862F39343FB603B68DB884F
:1058D800DBB203F00F03DAB2FB6862F39953FB60A3
:1058E800FB6843F08053FB60FB6843F40043FB60B4
:1058F800FA687B691A607B681B697A681269D169E2
:10590800BA680A43DA61FB7C184607F11C07BD46F2
:1059180080BC704780B487B000AF786039604FF0C2
:105928000003FB744FF00003FB604FF00003BB6003
:105938003B685B78012B12D13B681B787A6803F1CE
:1059480004034FEA8303D3189B687B613B681B7889
:105958004FF0010202FA03F39BB23B8114E03B686B
:105968001B787A6803F114034FEA8303D3185B6842
:105978007B613B681B784FF0010202FA03F39AB28D
:10598800BB6862F31F43BB60FB686FF3CF33FB60F8
:10599800FA687B691A607B681B697A681269D16941
:1059A800BA686FEA02020A40DA61FB7C184607F11E
:1059B8001C07BD4680BC704780B588B000AF7860D2
:1059C80039604FF00003FB774FF00003BB614FF0E5
:1059D80000037B614FF000033B613B685B78012B60
:1059E80040F0BD803B681B787A6803F104034FEAF6
:1059F8008303D3189B681B687B613B681B787A68B4
:105A080003F104034FEA8303D3189B681B693B61C6
:105A18003B685B69002B0AD13B696FF312033B615A
:105A28003B694FF0010262F3DC433B6128E03B68CD
:105A38005B6923F07F4222F478023B6962F3120328
:105A48003B613B685A693B689B68D31803F1FF3296
:105A58003B689B68B2FBF3F39BB24FEA83534FEA70
:105A680093539AB23B6962F3DC433B613B68DB7852
:105A7800012B05D13B694FF0010262F35E733B6174
:105A88003B681B787A6803F104034FEA8303D31851
:105A98009B683A691A617B68DB78012B0CD13B68FB
:105AA8001B787A6803F104034FEA8303D3189B68D1
:105AB8003A6812695A6116E03B68DB78012B12D00C
:105AC8003B685B69002B0ED03B681B784FF00102E6
